{
  "_format": "hh-sol-artifact-1",
  "contractName": "CertificateRegistry",
  "sourceName": "contracts/CertificateRegistry.sol",
  "abi": [
    {
      "inputs": [
        {
          "internalType": "address",
          "name": "",
          "type": "address"
        }
      ],
      "name": "certificates",
      "outputs": [
        {
          "internalType": "string",
          "name": "studentName",
          "type": "string"
        },
        {
          "internalType": "string",
          "name": "course",
          "type": "string"
        },
        {
          "internalType": "uint256",
          "name": "date",
          "type": "uint256"
        },
        {
          "internalType": "bool",
          "name": "valid",
          "type": "bool"
        }
      ],
      "stateMutability": "view",
      "type": "function"
    },
    {
      "inputs": [
        {
          "internalType": "address",
          "name": "student",
          "type": "address"
        },
        {
          "internalType": "string",
          "name": "studentName",
          "type": "string"
        },
        {
          "internalType": "string",
          "name": "course",
          "type": "string"
        },
        {
          "internalType": "uint256",
          "name": "date",
          "type": "uint256"
        }
      ],
      "name": "issueCertificate",
      "outputs": [],
      "stateMutability": "nonpayable",
      "type": "function"
    },
    {
      "inputs": [
        {
          "internalType": "address",
          "name": "student",
          "type": "address"
        }
      ],
      "name": "verifyCertificate",
      "outputs": [
        {
          "internalType": "bool",
          "name": "",
          "type": "bool"
        }
      ],
      "stateMutability": "view",
      "type": "function"
    }
  ],
  "bytecode": "0x608060405234801561001057600080fd5b50610a0f806100206000396000f3fe608060405234801561001057600080fd5b50600436106100405760003560e01c806216e526146100455780636b9afc9014610078578063dc02992e146100a8575b600080fd5b61005f600480360381019061005a919061039c565b6100c4565b60405161006f949392919061048d565b60405180910390f35b610092600480360381019061008d919061039c565b610211565b60405161009f91906104e0565b60405180910390f35b6100c260048036038101906100bd919061065c565b610269565b005b60006020528060005260406000206000915090508060000180546100e79061072a565b80601f01602080910402602001604051908101604052809291908181526020018280546101139061072a565b80156101605780601f1061013557610100808354040283529160200191610160565b820191906000526020600020905b81548152906001019060200180831161014357829003601f168201915b5050505050908060010180546101759061072a565b80601f01602080910402602001604051908101604052809291908181526020018280546101a19061072a565b80156101ee5780601f106101c3576101008083540402835291602001916101ee565b820191906000526020600020905b8154815290600101906020018083116101d157829003601f168201915b5050505050908060020154908060030160009054906101000a900460ff16905084565b60008060008373ffffffffffffffffffffffffffffffffffffffff1673ffffffffffffffffffffffffffffffffffffffff16815260200190815260200160002060030160009054906101000a900460ff169050919050565b6040518060800160405280848152602001838152602001828152602001600115158152506000808673ffffffffffffffffffffffffffffffffffffffff1673ffffffffffffffffffffffffffffffffffffffff16815260200190815260200160002060008201518160000190816102e09190610907565b5060208201518160010190816102f69190610907565b506040820151816002015560608201518160030160006101000a81548160ff02191690831515021790555090505050505050565b6000604051905090565b600080fd5b600080fd5b600073ffffffffffffffffffffffffffffffffffffffff82169050919050565b60006103698261033e565b9050919050565b6103798161035e565b811461038457600080fd5b50565b60008135905061039681610370565b92915050565b6000602082840312156103b2576103b1610334565b5b60006103c084828501610387565b91505092915050565b600081519050919050565b600082825260208201905092915050565b60005b838110156104035780820151818401526020810190506103e8565b60008484015250505050565b6000601f19601f8301169050919050565b600061042b826103c9565b61043581856103d4565b93506104458185602086016103e5565b61044e8161040f565b840191505092915050565b6000819050919050565b61046c81610459565b82525050565b60008115159050919050565b61048781610472565b82525050565b600060808201905081810360008301526104a78187610420565b905081810360208301526104bb8186610420565b90506104ca6040830185610463565b6104d7606083018461047e565b95945050505050565b60006020820190506104f5600083018461047e565b92915050565b600080fd5b600080fd5b7f4e487b7100000000000000000000000000000000000000000000000000000000600052604160045260246000fd5b61053d8261040f565b810181811067ffffffffffffffff8211171561055c5761055b610505565b5b80604052505050565b600061056f61032a565b905061057b8282610534565b919050565b600067ffffffffffffffff82111561059b5761059a610505565b5b6105a48261040f565b9050602081019050919050565b82818337600083830152505050565b60006105d36105ce84610580565b610565565b9050828152602081018484840111156105ef576105ee610500565b5b6105fa8482856105b1565b509392505050565b600082601f830112610617576106166104fb565b5b81356106278482602086016105c0565b91505092915050565b61063981610459565b811461064457600080fd5b50565b60008135905061065681610630565b92915050565b6000806000806080858703121561067657610675610334565b5b600061068487828801610387565b945050602085013567ffffffffffffffff8111156106a5576106a4610339565b5b6106b187828801610602565b935050604085013567ffffffffffffffff8111156106d2576106d1610339565b5b6106de87828801610602565b92505060606106ef87828801610647565b91505092959194509250565b7f4e487b7100000000000000000000000000000000000000000000000000000000600052602260045260246000fd5b6000600282049050600182168061074257607f821691505b602082108103610755576107546106fb565b5b50919050565b60008190508160005260206000209050919050565b60006020601f8301049050919050565b600082821b905092915050565b6000600883026107bd7fffffffffffffffffffffffffffffffffffffffffffffffffffffffffffffffff82610780565b6107c78683610780565b95508019841693508086168417925050509392505050565b6000819050919050565b60006108046107ff6107fa84610459565b6107df565b610459565b9050919050565b6000819050919050565b61081e836107e9565b61083261082a8261080b565b84845461078d565b825550505050565b600090565b61084761083a565b610852818484610815565b505050565b5b818110156108765761086b60008261083f565b600181019050610858565b5050565b601f8211156108bb5761088c8161075b565b61089584610770565b810160208510156108a4578190505b6108b86108b085610770565b830182610857565b50505b505050565b600082821c905092915050565b60006108de600019846008026108c0565b1980831691505092915050565b60006108f783836108cd565b9150826002028217905092915050565b610910826103c9565b67ffffffffffffffff81111561092957610928610505565b5b610933825461072a565b61093e82828561087a565b600060209050601f831160018114610971576000841561095f578287015190505b61096985826108eb565b8655506109d1565b601f19841661097f8661075b565b60005b828110156109a757848901518255600182019150602085019450602081019050610982565b868310156109c457848901516109c0601f8916826108cd565b8355505b6001600288020188555050505b50505050505056fea26469706673582212206e0e8d493a01ebf8d6bfc5e7a9f99cee9b974008fed13031fe05392f3f0dfca964736f6c63430008140033",
  "linkReferences": {},
  "deployedLinkReferences": {}
}