{
  "_format": "hh-sol-artifact-1",
  "contractName": "CertificateRegistry",
  "sourceName": "contracts/CertificateRegistry.sol",
  "abi": [
    {
      "inputs": [],
      "stateMutability": "nonpayable",
      "type": "constructor"
    },
    {
      "anonymous": false,
      "inputs": [
        {
          "indexed": true,
          "internalType": "bytes32",
          "name": "id",
          "type": "bytes32"
        },
        {
          "indexed": true,
          "internalType": "bytes32",
          "name": "holderHash",
          "type": "bytes32"
        },
        {
          "indexed": false,
          "internalType": "string",
          "name": "title",
          "type": "string"
        },
        {
          "indexed": false,
          "internalType": "string",
          "name": "issuer",
          "type": "string"
        },
        {
          "indexed": false,
          "internalType": "uint64",
          "name": "issuedAt",
          "type": "uint64"
        },
        {
          "indexed": false,
          "internalType": "uint64",
          "name": "expiresAt",
          "type": "uint64"
        }
      ],
      "name": "CertificateIssued",
      "type": "event"
    },
    {
      "anonymous": false,
      "inputs": [
        {
          "indexed": true,
          "internalType": "bytes32",
          "name": "id",
          "type": "bytes32"
        },
        {
          "indexed": false,
          "internalType": "uint64",
          "name": "revokedAt",
          "type": "uint64"
        }
      ],
      "name": "CertificateRevoked",
      "type": "event"
    },
    {
      "inputs": [
        {
          "internalType": "bytes32",
          "name": "",
          "type": "bytes32"
        }
      ],
      "name": "certificates",
      "outputs": [
        {
          "internalType": "bytes32",
          "name": "id",
          "type": "bytes32"
        },
        {
          "internalType": "bytes32",
          "name": "holderHash",
          "type": "bytes32"
        },
        {
          "internalType": "string",
          "name": "title",
          "type": "string"
        },
        {
          "internalType": "string",
          "name": "issuer",
          "type": "string"
        },
        {
          "internalType": "uint64",
          "name": "issuedAt",
          "type": "uint64"
        },
        {
          "internalType": "uint64",
          "name": "expiresAt",
          "type": "uint64"
        },
        {
          "internalType": "bool",
          "name": "revoked",
          "type": "bool"
        }
      ],
      "stateMutability": "view",
      "type": "function"
    },
    {
      "inputs": [
        {
          "internalType": "bytes32",
          "name": "id",
          "type": "bytes32"
        },
        {
          "internalType": "bytes32",
          "name": "holderHash",
          "type": "bytes32"
        },
        {
          "internalType": "string",
          "name": "title",
          "type": "string"
        },
        {
          "internalType": "string",
          "name": "issuer",
          "type": "string"
        },
        {
          "internalType": "uint64",
          "name": "expiresAt",
          "type": "uint64"
        }
      ],
      "name": "issue",
      "outputs": [],
      "stateMutability": "nonpayable",
      "type": "function"
    },
    {
      "inputs": [],
      "name": "owner",
      "outputs": [
        {
          "internalType": "address",
          "name": "",
          "type": "address"
        }
      ],
      "stateMutability": "view",
      "type": "function"
    },
    {
      "inputs": [
        {
          "internalType": "bytes32",
          "name": "id",
          "type": "bytes32"
        }
      ],
      "name": "revoke",
      "outputs": [],
      "stateMutability": "nonpayable",
      "type": "function"
    },
    {
      "inputs": [
        {
          "internalType": "bytes32",
          "name": "id",
          "type": "bytes32"
        },
        {
          "internalType": "bytes32",
          "name": "holderHash",
          "type": "bytes32"
        }
      ],
      "name": "verify",
      "outputs": [
        {
          "internalType": "bool",
          "name": "valid",
          "type": "bool"
        },
        {
          "internalType": "bool",
          "name": "isRevoked",
          "type": "bool"
        },
        {
          "internalType": "uint64",
          "name": "issuedAt",
          "type": "uint64"
        },
        {
          "internalType": "uint64",
          "name": "expiresAt",
          "type": "uint64"
        },
        {
          "internalType": "string",
          "name": "title",
          "type": "string"
        },
        {
          "internalType": "string",
          "name": "issuer",
          "type": "string"
        }
      ],
      "stateMutability": "view",
      "type": "function"
    }
  ],
  "bytecode": "0x608060405234801561001057600080fd5b50336000806101000a81548173ffffffffffffffffffffffffffffffffffffffff021916908373ffffffffffffffffffffffffffffffffffffffff1602179055506113ed806100606000396000f3fe608060405234801561001057600080fd5b50600436106100575760003560e01c80634e8fee001461005c5780635057622f14610091578063742f0688146100ad5780638da5cb5b146100e3578063b75c7dc614610101575b600080fd5b61007660048036038101906100719190610a63565b61011d565b60405161008896959493929190610b71565b60405180910390f35b6100ab60048036038101906100a69190610c71565b6103cc565b005b6100c760048036038101906100c29190610d2d565b6106c3565b6040516100da9796959493929190610d69565b60405180910390f35b6100eb61084a565b6040516100f89190610e27565b60405180910390f35b61011b60048036038101906101169190610d2d565b61086e565b005b6000806000806060806000600160008a81526020019081526020016000206040518060e0016040529081600082015481526020016001820154815260200160028201805461016a90610e71565b80601f016020809104026020016040519081016040528092919081815260200182805461019690610e71565b80156101e35780601f106101b8576101008083540402835291602001916101e3565b820191906000526020600020905b8154815290600101906020018083116101c657829003601f168201915b505050505081526020016003820180546101fc90610e71565b80601f016020809104026020016040519081016040528092919081815260200182805461022890610e71565b80156102755780601f1061024a57610100808354040283529160200191610275565b820191906000526020600020905b81548152906001019060200180831161025857829003601f168201915b505050505081526020016004820160009054906101000a900467ffffffffffffffff1667ffffffffffffffff1667ffffffffffffffff1681526020016004820160089054906101000a900467ffffffffffffffff1667ffffffffffffffff1667ffffffffffffffff1681526020016004820160109054906101000a900460ff16151515158152505090506000816080015167ffffffffffffffff160361034d576000806000806040518060200160405280600081525060405180602001604052806000815250965096509650965096509650506103c2565b60008160c001511580156103645750888260200151145b8015610397575060008260a0015167ffffffffffffffff1614806103965750428260a0015167ffffffffffffffff1610155b5b9050808260c0015183608001518460a001518560400151866060015197509750975097509750975050505b9295509295509295565b60008054906101000a900473ffffffffffffffffffffffffffffffffffffffff1673ffffffffffffffffffffffffffffffffffffffff163373ffffffffffffffffffffffffffffffffffffffff161461045a576040517f08c379a000000000000000000000000000000000000000000000000000000000815260040161045190610eee565b60405180910390fd5b60006001600089815260200190815260200160002060040160009054906101000a900467ffffffffffffffff1667ffffffffffffffff16146104d1576040517f08c379a00000000000000000000000000000000000000000000000000000000081526004016104c890610f5a565b60405180910390fd5b6040518060e0016040528088815260200187815260200186868080601f016020809104026020016040519081016040528093929190818152602001838380828437600081840152601f19601f82011690508083019250505050505050815260200184848080601f016020809104026020016040519081016040528093929190818152602001838380828437600081840152601f19601f8201169050808301925050505050505081526020014267ffffffffffffffff1681526020018267ffffffffffffffff1681526020016000151581525060016000898152602001908152602001600020600082015181600001556020820151816001015560408201518160020190816105df919061115f565b5060608201518160030190816105f5919061115f565b5060808201518160040160006101000a81548167ffffffffffffffff021916908367ffffffffffffffff16021790555060a08201518160040160086101000a81548167ffffffffffffffff021916908367ffffffffffffffff16021790555060c08201518160040160106101000a81548160ff02191690831515021790555090505085877fb9030a01c47fa99d58bca97b09fce2a14e5cbf7c268095580608f4482a03b9698787878742886040516106b29695949392919061126d565b60405180910390a350505050505050565b60016020528060005260406000206000915090508060000154908060010154908060020180546106f290610e71565b80601f016020809104026020016040519081016040528092919081815260200182805461071e90610e71565b801561076b5780601f106107405761010080835404028352916020019161076b565b820191906000526020600020905b81548152906001019060200180831161074e57829003601f168201915b50505050509080600301805461078090610e71565b80601f01602080910402602001604051908101604052809291908181526020018280546107ac90610e71565b80156107f95780601f106107ce576101008083540402835291602001916107f9565b820191906000526020600020905b8154815290600101906020018083116107dc57829003601f168201915b5050505050908060040160009054906101000a900467ffffffffffffffff16908060040160089054906101000a900467ffffffffffffffff16908060040160109054906101000a900460ff16905087565b60008054906101000a900473ffffffffffffffffffffffffffffffffffffffff1681565b60008054906101000a900473ffffffffffffffffffffffffffffffffffffffff1673ffffffffffffffffffffffffffffffffffffffff163373ffffffffffffffffffffffffffffffffffffffff16146108fc576040517f08c379a00000000000000000000000000000000000000000000000000000000081526004016108f390610eee565b60405180910390fd5b600060016000838152602001908152602001600020905060008160040160009054906101000a900467ffffffffffffffff1667ffffffffffffffff1603610978576040517f08c379a000000000000000000000000000000000000000000000000000000000815260040161096f90611310565b60405180910390fd5b8060040160109054906101000a900460ff16156109ca576040517f08c379a00000000000000000000000000000000000000000000000000000000081526004016109c19061137c565b60405180910390fd5b60018160040160106101000a81548160ff021916908315150217905550817fdfb16e680b89bb363b97cbc4b6ef42b95dba995e00034252becd4f9168cecc8842604051610a17919061139c565b60405180910390a25050565b600080fd5b600080fd5b6000819050919050565b610a4081610a2d565b8114610a4b57600080fd5b50565b600081359050610a5d81610a37565b92915050565b60008060408385031215610a7a57610a79610a23565b5b6000610a8885828601610a4e565b9250506020610a9985828601610a4e565b9150509250929050565b60008115159050919050565b610ab881610aa3565b82525050565b600067ffffffffffffffff82169050919050565b610adb81610abe565b82525050565b600081519050919050565b600082825260208201905092915050565b60005b83811015610b1b578082015181840152602081019050610b00565b60008484015250505050565b6000601f19601f8301169050919050565b6000610b4382610ae1565b610b4d8185610aec565b9350610b5d818560208601610afd565b610b6681610b27565b840191505092915050565b600060c082019050610b866000830189610aaf565b610b936020830188610aaf565b610ba06040830187610ad2565b610bad6060830186610ad2565b8181036080830152610bbf8185610b38565b905081810360a0830152610bd38184610b38565b9050979650505050505050565b600080fd5b600080fd5b600080fd5b60008083601f840112610c0557610c04610be0565b5b8235905067ffffffffffffffff811115610c2257610c21610be5565b5b602083019150836001820283011115610c3e57610c3d610bea565b5b9250929050565b610c4e81610abe565b8114610c5957600080fd5b50565b600081359050610c6b81610c45565b92915050565b600080600080600080600060a0888a031215610c9057610c8f610a23565b5b6000610c9e8a828b01610a4e565b9750506020610caf8a828b01610a4e565b965050604088013567ffffffffffffffff811115610cd057610ccf610a28565b5b610cdc8a828b01610bef565b9550955050606088013567ffffffffffffffff811115610cff57610cfe610a28565b5b610d0b8a828b01610bef565b93509350506080610d1e8a828b01610c5c565b91505092959891949750929550565b600060208284031215610d4357610d42610a23565b5b6000610d5184828501610a4e565b91505092915050565b610d6381610a2d565b82525050565b600060e082019050610d7e600083018a610d5a565b610d8b6020830189610d5a565b8181036040830152610d9d8188610b38565b90508181036060830152610db18187610b38565b9050610dc06080830186610ad2565b610dcd60a0830185610ad2565b610dda60c0830184610aaf565b98975050505050505050565b600073ffffffffffffffffffffffffffffffffffffffff82169050919050565b6000610e1182610de6565b9050919050565b610e2181610e06565b82525050565b6000602082019050610e3c6000830184610e18565b92915050565b7f4e487b7100000000000000000000000000000000000000000000000000000000600052602260045260246000fd5b60006002820490506001821680610e8957607f821691505b602082108103610e9c57610e9b610e42565b5b50919050565b7f6e6f74206f776e65720000000000000000000000000000000000000000000000600082015250565b6000610ed8600983610aec565b9150610ee382610ea2565b602082019050919050565b60006020820190508181036000830152610f0781610ecb565b9050919050565b7f6578697374730000000000000000000000000000000000000000000000000000600082015250565b6000610f44600683610aec565b9150610f4f82610f0e565b602082019050919050565b60006020820190508181036000830152610f7381610f37565b9050919050565b7f4e487b7100000000000000000000000000000000000000000000000000000000600052604160045260246000fd5b60008190508160005260206000209050919050565b60006020601f8301049050919050565b600082821b905092915050565b60006008830261100b7fffffffffffffffffffffffffffffffffffffffffffffffffffffffffffffffff82610fce565b6110158683610fce565b95508019841693508086168417925050509392505050565b6000819050919050565b6000819050919050565b600061105c6110576110528461102d565b611037565b61102d565b9050919050565b6000819050919050565b61107683611041565b61108a61108282611063565b848454610fdb565b825550505050565b600090565b61109f611092565b6110aa81848461106d565b505050565b5b818110156110ce576110c3600082611097565b6001810190506110b0565b5050565b601f821115611113576110e481610fa9565b6110ed84610fbe565b810160208510156110fc578190505b61111061110885610fbe565b8301826110af565b50505b505050565b600082821c905092915050565b600061113660001984600802611118565b1980831691505092915050565b600061114f8383611125565b9150826002028217905092915050565b61116882610ae1565b67ffffffffffffffff81111561118157611180610f7a565b5b61118b8254610e71565b6111968282856110d2565b600060209050601f8311600181146111c957600084156111b7578287015190505b6111c18582611143565b865550611229565b601f1984166111d786610fa9565b60005b828110156111ff578489015182556001820191506020850194506020810190506111da565b8683101561121c5784890151611218601f891682611125565b8355505b6001600288020188555050505b505050505050565b82818337600083830152505050565b600061124c8385610aec565b9350611259838584611231565b61126283610b27565b840190509392505050565b6000608082019050818103600083015261128881888a611240565b9050818103602083015261129d818688611240565b90506112ac6040830185610ad2565b6112b96060830184610ad2565b979650505050505050565b7f6e6f7420666f756e640000000000000000000000000000000000000000000000600082015250565b60006112fa600983610aec565b9150611305826112c4565b602082019050919050565b60006020820190508181036000830152611329816112ed565b9050919050565b7f616c7265616479207265766f6b65640000000000000000000000000000000000600082015250565b6000611366600f83610aec565b915061137182611330565b602082019050919050565b6000602082019050818103600083015261139581611359565b9050919050565b60006020820190506113b16000830184610ad2565b9291505056fea264697066735822122091cdedd780fd109b32763a72d617976bf85422748a07f5655e457eeaef0eafb064736f6c63430008140033",
  "linkReferences": {},
  "deployedLinkReferences": {}
}